:100000000C946B000C9493000C9493000C94B40427
:100010000C94B4040C94B4040C9493000C949300CA
:100020000C9493000C9493000C9493000C94930004
:100030000C9493000C9493000C9493000C949300F4
:100040000C946A040C9493000C9438040C941204DD
:100050000C9493000C9493000C9493000C949300D4
:100060000C9493000C9493007A0780078E079407F2
:100070009A07A407AA07B40700000000240027007D
:100080002A0000000008000201000003040700002D
:1000900000000000000000000000250028002B00E8
:1000A00000000000230026002900040404040404C6
:1000B0000404020202020202030303030303010217
:1000C00004081020408001020408102001020408E6
:1000D00010202E05580811241FBECFEFD8E0DEBF38
:1000E000CDBF22E0A4E3B1E001C01D92AB37B2075F
:1000F000E1F711E0A0E0B1E0E8E1F6E102C005902F
:100100000D92A433B107D9F710E0CAE6D0E004C0DD
:100110002197FE010E94D908C936D107C9F70E946C
:10012000D9050C94FF0A0C940000CF92DF92EF9255
:10013000FF920F931F93CF93DF93EC016A017B0132
:1001400000E010E00C151D0509F43DC02FB7F89430
:100150008091B5019091B601A091B701B091B8011D
:100160002FBF88879987AA87BB87E881F981028496
:10017000F385E02DCE01099597FD09C08D309105DD
:1001800011F1F70181937F010F5F1F4FDBCF2FB775
:10019000F8948091B5019091B601A091B701B0910A
:1001A000B8012FBF488559856A857B85841B950BCF
:1001B000A60BB70B4C815D816E817F8184179507FB
:1001C000A607B70790F2C801DF91CF911F910F9159
:1001D000FF90EF90DF90CF9008950895CF92DF9237
:1001E000EF92FF920F931F93CF93DF936C017A01ED
:1001F0008B01C0E0D0E0CE15DF0589F0D8016D910C
:100200008D01D601ED91FC910190F081E02DC601A8
:100210000995892B11F47E0102C02196ECCFC7010C
:10022000DF91CF911F910F91FF90EF90DF90CF90D2
:100230000895FC01538D448D252F30E0842F90E0EC
:10024000821B930B541710F0CF96089501970895D1
:10025000FC01918D828D981761F0828DDF01A80FCE
:10026000B11D5D968C91928D9F5F9F73928F90E0F0
:1002700008958FEF9FEF0895FC01918D828D98175F
:1002800031F0828DE80FF11D858D90E008958FEF9C
:100290009FEF0895FC01918D228D892F90E0805C65
:1002A0009F4F821B91098F739927089589EB91E0E5
:1002B0000E944A0121E0892B09F420E0822F089551
:1002C000FC01848DDF01A80FB11DA35ABF4F2C91F3
:1002D000848D90E001968F739927848FA689B789C2
:1002E0002C93A089B1898C9180648C93938D848D9B
:1002F000981306C00288F389E02D80818F7D80836A
:100300000895EF92FF920F931F93CF93DF93EC0129
:1003100081E0888F9B8D8C8D981305C0E889F989C1
:10032000808185FD24C0F62E0B8D10E00F5F1F4FDE
:100330000F731127E02E8C8DE8120CC00FB607FC4E
:10034000FACFE889F989808185FFF5CFCE010E9437
:100350006001F1CF8B8DFE01E80FF11DE35AFF4FD5
:10036000F0820B8FEA89FB898081806207C0EE8969
:10037000FF896083E889F98980818064808381E0D6
:1003800090E0DF91CF911F910F91FF90EF90089532
:10039000CF93DF93EC01888D8823C9F0EA89FB892C
:1003A000808185FD05C0A889B9898C9186FD0FC023
:1003B0000FB607FCF5CF808185FFF2CFA889B989F8
:1003C0008C9185FFEDCFCE010E946001E7CFDF91D8
:1003D000CF91089544E150E061EA71E089EB91E04A
:1003E0000E94950080939C019927FC01EF55FE4FD8
:1003F000108208950E94560181110C94EA0108951B
:1004000090E0FC01EE57FF4F3491FC01E254FF4FA6
:100410002491FC01E655FF4FE491EE2309F43BC023
:10042000332339F1333091F038F43130A9F03230E0
:1004300001F584B58F7D12C0373091F03830A1F0CE
:100440003430B9F4809180008F7D03C080918000AA
:100450008F77809380000DC084B58F7784BD09C0ED
:100460008091B0008F7703C08091B0008F7D809322
:10047000B000F0E0EE0FFF1FEA56FF4FA591B491D8
:100480008FB7F894EC91611103C020952E2301C021
:100490002E2B2C938FBF0895CF93DF9390E0FC0118
:1004A000E254FF4F2491FC01E655FF4F84918823CD
:1004B00061F190E0880F991FFC01E858FF4FC5914A
:1004C000D491FC01EA56FF4FA591B491611109C086
:1004D0009FB7F8948881209582238883EC912E23FE
:1004E0000BC0623061F49FB7F8943881822F8095F9
:1004F00083238883EC912E2B2C939FBF06C08FB74C
:10050000F894E8812E2B28838FBFDF91CF91089537
:100510003FB7F8948091750190917601A091770191
:10052000B091780126B5A89B05C02F3F19F0019620
:10053000A11DB11D3FBFBA2FA92F982F8827820F69
:10054000911DA11DB11DBC01CD0142E0660F771FB9
:10055000881F991F4A95D1F708958F929F92AF9265
:10056000BF92CF92DF92EF92FF920E9488024B01DE
:100570005C0188EEC82E83E0D82EE12CF12C0E947D
:100580008802DC01CB0188199909AA09BB09883EB8
:100590009340A105B10558F021E0C21AD108E10845
:1005A000F10888EE880E83E0981EA11CB11CC114CE
:1005B000D104E104F10419F7FF90EF90DF90CF90A0
:1005C000BF90AF909F908F90089520917B013091C4
:1005D0007C012817390771F49091790180917A0193
:1005E000981741F0E0917901F0E0EC5CFE4F8081DA
:1005F00090E008958FEF9FEF08951F93CF93DF93BF
:10060000DC015C962D913C915D972115310539F403
:1006100081E090E013969C938E9312973DC0519683
:10062000ED91FC91529750969C915097892F80950F
:100630001FB75E964C915E9741FB772770F941FD9D
:100640006095F8944081772311F0492B01C048232D
:100650004083E9012197F1F748E0508160FF02C033
:10066000592B01C058235083E9012197F1F7669572
:10067000415099F7772321F090818923808303C02B
:100680008081982B90831FBF5C968D919C915D9784
:100690000197F1F721E030E0C901DF91CF911F917F
:1006A000089520917B0130917C012817390771F45E
:1006B00080917A012091790190E0805C9F4F821BAC
:1006C000910960E470E00E94C508089580E090E020
:1006D000089520917B0130917C0128173907B9F4E6
:1006E0009091790180917A01981789F0E0917901D0
:1006F000F0E0EC5CFE4F80812091790130E02F5FCB
:100700003F4F2F7333272093790190E008958FEFA7
:100710009FEF0895E0917B01F0917C01E817F907C4
:1007200069F4A389B4899C918589809589238C93E8
:1007300010927C0110927B0181E0089580E0089581
:10074000089580E090E008956115710579F0FB014E
:1007500001900020E9F73197AF01461B570BDC01F0
:10076000ED91FC910280F381E02D099480E090E00E
:1007700008950E94EA0A0F931F93CF93DF93EC0131
:1007800088819981009729F02A813B8126173707B4
:1007900088F48B016F5F7F4F0E94200A009761F001
:1007A000998388831B830A832C813D81232B11F439
:1007B000FC01108281E001C080E0DF91CF911F91A8
:1007C0000F910895EF92FF920F931F93CF93DF93B2
:1007D00000D0CDB7DEB78C0169831A82FC01E480BA
:1007E000F580FFEFEF1AFF0AB7010E94BB038823D1
:1007F00081F0F8012081318184819581BE016F5F94
:100800007F4F820F931F0E94F80AF801F582E4825D
:1008100081E00F900F90DF91CF911F910F91FF908A
:10082000EF9008951F920F920FB60F9211242F93FD
:100830003F934F935F936F937F938F939F93AF9368
:10084000BF93EF93FF9389EB91E00E946001FF91CA
:10085000EF91BF91AF919F918F917F916F915F9138
:100860004F913F912F910F900FBE0F901F901895B1
:100870001F920F920FB60F9211242F938F939F9375
:10088000EF93FF93E091C901F091CA018081E0915B
:10089000CF01F091D00182FD12C090818091D201F0
:1008A0008F5F8F732091D301821751F0E091D201B5
:1008B000F0E0E754FE4F958F8093D20101C0808114
:1008C000FF91EF919F918F912F910F900FBE0F90FD
:1008D0001F9018951F920F920FB60F9211242F930D
:1008E0003F938F939F93AF93BF938091B501909166
:1008F000B601A091B701B091B8013091740123E025
:10090000230F2D3720F40196A11DB11D05C026E847
:10091000230F0296A11DB11D209374018093B50190
:100920009093B601A093B701B093B801809175017F
:1009300090917601A0917701B09178010196A11D67
:10094000B11D8093750190937601A0937701B093C8
:100950007801BF91AF919F918F913F912F910F900F
:100960000FBE0F901F9018951F920F920FB60F9207
:1009700011242F933F934F935F936F937F938F93A4
:100980009F93AF93BF93EF93FF93E0917B01F0911F
:100990007C01309709F451C0968DA685B785858571
:1009A00091FF04C09C91892329F447C09C9189231D
:1009B00009F043C0A389B4899C91858980958923D6
:1009C0008C93868997890197F1F7608D718DA68543
:1009D000B785558538E020E0CB010197F1F7822FEC
:1009E00090E095958795282F4C91452309F0206834
:1009F000315091F7868D81FD209580917A0190E0AC
:100A000001968F73992730917901381749F0A09199
:100A10007A01B0E0AC5CBE4F2C9380937A0103C0A6
:100A2000868D8160868F828D938D0197F1F7A389E2
:100A3000B4899C918589892B8C93FF91EF91BF910B
:100A4000AF919F918F917F916F915F914F913F9166
:100A50002F910F900FBE0F901F9018951092BC0110
:100A60001092BB0188EE93E0A0E0B0E08093BD015E
:100A70009093BE01A093BF01B093C0012AE031E082
:100A80003093BA012093B90125EC30E03093C601D0
:100A90002093C50124EC30E03093C8012093C701B6
:100AA00020EC30E03093CA012093C90121EC30E002
:100AB0003093CC012093CB0122EC30E03093CE0177
:100AC0002093CD0126EC30E03093D0012093CF016C
:100AD0001092D2011092D3011092D4011092D5013C
:100AE000109259021092580280935A0290935B021E
:100AF000A0935C02B0935D028CE191E09093570269
:100B00008093560210926D0210926C0210926F0246
:100B100010926E0210927102109270021092730283
:100B200010927202609174026E7F6D7F6093740206
:100B30006695617081E068278AE00E94000261E0AA
:100B40008AE00E944C02E8ECF0E0E491E093660257
:100B5000E4EBF0E0E491F0E0EE0FFF1FEA56FF4F08
:100B600085919491909368028093670260E08BE096
:100B70000E944C028091740281FD04C061E08BE010
:100B80000E9400028BE080936202E9ECF0E0E491C5
:100B9000E0936302E5EBF0E0E491F0E0EE0FFF1F7D
:100BA000E056FF4F85919491909365028093640283
:100BB0000895CF93DF9300D000D000D0CDB7DEB73B
:100BC000789484B5826084BD84B5816084BD85B528
:100BD000826085BD85B5816085BD80916E00816034
:100BE00080936E00109281008091810082608093DA
:100BF00081008091810081608093810080918000DC
:100C00008160809380008091B10084608093B10006
:100C10008091B00081608093B00080917A00846000
:100C200080937A0080917A00826080937A0080912C
:100C30007A00816080937A0080917A008068809346
:100C40007A001092C10061E087E00E944C0261E0EE
:100C500086E00E944C0261E085E00E944C0261E067
:100C600084E00E944C02E091C901F091CA0182E047
:100C70008083E091C501F091C6011082E091C70127
:100C8000F091C8018FEC80831092D101E091CD01E9
:100C9000F091CE0186E08083E091CB01F091CC0110
:100CA000808180618083E091CB01F091CC018081D3
:100CB00088608083E091CB01F091CC0180818068D5
:100CC0008083E091CB01F091CC0180818F7D808386
:100CD000109271021092700210926F0210926E02C6
:100CE00010926D0210926C028DE991E09093730264
:100CF0008093720290916202963108F057C02DEBFA
:100D000030E030936D0220936C022BE931E0309398
:100D10006F0220936E022CE231E030937102209337
:100D2000700220916800983050F031E09E3008F455
:100D300030E081E001C0880F3A95EAF701C084E015
:100D4000822B80936800983038F09E3040F09631C6
:100D500048F020E030E008C02DE630E005C02BE68A
:100D600030E002C02CE630E030936A022093690242
:100D7000983030F481E001C0880F9A95EAF70EC0F0
:100D8000292F30E09E3018F42850310902C02E502F
:100D9000310981E001C0880F2A95EAF780936B0240
:100DA00080917202909173020197F1F78091700225
:100DB00090917102892B21F180917B0190917C01AE
:100DC00022E086359207E1F0009711F00E948A0335
:100DD000809174028E7F8093740210927A01109237
:100DE000790186E592E090937C0180937B01E0910C
:100DF0006902F0916A02908180916B02892B808355
:100E000089EB91E00E94C80162E371E089EB91E017
:100E10000E94A4036AE271E089EB91E00E94A403BE
:100E20009EE7C92E91E0D92E2AE3B22E32E7A32EF7
:100E30001A8219821C821B821E821D8260E070E071
:100E4000CE0101960E94BB0329813A8181110FC016
:100E50002115310519F0C9010E9488091A821982E9
:100E60001E821D821C821B8200E010E008C01E82D0
:100E70001D826CE271E0C9010E94F80AF5CF0115EC
:100E8000110529F463E7CE0101960E94E20380E395
:100E9000800F8093A101B092A201A092A3011092B1
:100EA000A4016DE271E081EA91E00E9462089093F2
:100EB000A00180939F016DE271E080E090E00E94CC
:100EC00062087C0190939E0180939D01E0919F01B7
:100ED000F091A001E0814E2FEE0F550B660B770BC2
:100EE000FA01F097E830F10508F04EC0EC5CFF4FD6
:100EF0000C94D90860E085E00E94000261E01FC008
:100F000060E085E00E94000261E084E00E9400024F
:100F100061E087E00E94000260E033C060E085E0AD
:100F20000E94000261E01BC060E085E00E940002B8
:100F300061E01FC061E085E00E94000260E084E0A3
:100F40000E94000260E0E5CF61E085E00E940002BF
:100F500060E0DBCF61E085E00E94000260E084E0B9
:100F60000E94000260E009C061E085E00E9400028A
:100F700060E084E00E94000261E087E00E940002DD
:100F800061E086E00E940002E114F10459F0B7012B
:100F900086E592E00E94A4036FE271E086E592E0AC
:100FA0000E94A40310929C010E94AD0286E592E08B
:100FB0000E945103181619060CF05DC04EE150E076
:100FC0006EE771E086E592E00E94950080937D01D6
:100FD0009927FC01E258FE4F10828EE7E82E81E04F
:100FE000F82EF60101900020E9F73197EE57F14015
:100FF000C7018E5791408E179F0740F4F70161910A
:101000007F01CE0101960E94E203EBCF0330110570
:10101000C9F0ED80FE80F2E0EF0EF11CB701CE01C9
:1010200001960E94BB038823B9F029813A818D8102
:101030009E8161E371E0820F931F0E94F80AFE8295
:10104000ED820AC065E6CE0101960E94E20360E0EF
:10105000CE0101960E94E2034EE150E06EE771E09E
:1010600086E592E00E94950080937D019927FC011E
:10107000E258FE4F10820E94AD020F5F1F4F0430F6
:10108000110509F0FCCE4D815E8169817A8189EB81
:1010900091E00E94EE006AE271E089EB91E00E942B
:1010A000A40389819A810E9488090E94FA01C0CE16
:1010B0008CE191E0909357028093560286E592E08E
:1010C0000C948A0345E752E00E9467080895FA01EC
:1010D000A191B081009719F41097E1F0CD01DC01E6
:1010E000CD010D90002011F4C00113C0FB0121912E
:1010F000222319F02015D9F7F3CFFB0121912015F8
:1011000019F41E92119606C02223C1F70D900020FB
:10111000A1F7D001FA01A193B08308952F923F92D5
:101120004F925F926F927F928F929F92AF92BF92F7
:10113000CF92DF92EF92FF920F931F93CF93DF93A3
:10114000CDB7DEB7CA1BDB0B0FB6F894DEBF0FBE00
:10115000CDBF09942A88398848885F846E847D844D
:101160008C849B84AA84B984C884DF80EE80FD804F
:101170000C811B81AA81B981CE0FD11D0FB6F894C5
:10118000DEBF0FBECDBFED01089597FB072E16F40D
:10119000009407D077FD09D00E94DF0807FC05D036
:1011A0003EF4909581959F4F0895709561957F4F7E
:1011B0000895EE0FFF1F0590F491E02D0994AA1BEE
:1011C000BB1B51E107C0AA1FBB1FA617B70710F032
:1011D000A61BB70B881F991F5A95A9F78095909564
:1011E000BC01CD010895CF93DF938230910510F4B7
:1011F00082E090E0E0917902F0917A0220E030E024
:10120000C0E0D0E0309711F1408151814817590773
:10121000C0F04817590761F482819381209719F033
:101220009B838A832BC090937A028093790226C095
:101230002115310519F04217530718F49A01BE0120
:10124000DF01EF010280F381E02DDCCF21153105B4
:1012500009F1281B390B2430310590F412968D9139
:101260009C9113976115710521F0FB019383828393
:1012700004C090937A0280937902FD01329644C0B3
:10128000FD01E20FF31F81939193225031092D93B9
:101290003C933AC02091770230917802232B41F49D
:1012A000209102013091030130937802209377025C
:1012B00020910001309101012115310541F42DB734
:1012C0003EB74091040150910501241B350BE0917C
:1012D0007702F0917802E217F307A0F42E1B3F0B80
:1012E0002817390778F0AC014E5F5F4F2417350798
:1012F00048F04E0F5F1F509378024093770281931E
:10130000919302C0E0E0F0E0CF01DF91CF9108952A
:101310000F931F93CF93DF93009709F48CC0FC01C8
:101320003297138212820091790210917A0201158C
:10133000110581F420813181820F931F2091770262
:10134000309178022817390779F5F0937802E09305
:10135000770271C0D80140E050E0AE17BF0750F4EB
:1013600012962D913C911397AD012115310509F18C
:10137000D901F3CF9D01DA0133832283608171812A
:10138000860F971F8217930769F4EC012881398132
:10139000260F371F2E5F3F4F318320838A819B8129
:1013A00093838283452B29F4F0937A02E0937902A8
:1013B00042C01396FC93EE931297ED014991599117
:1013C0009E01240F351FE217F30771F4808191818C
:1013D000840F951F029611969C938E938281938120
:1013E00013969C938E931297E0E0F0E0D80112964A
:1013F0008D919C911397009719F0F8018C01F6CF0D
:101400008D919C9198012E5F3F4F820F931F2091E9
:101410007702309178022817390769F4309729F458
:1014200010927A021092790202C0138212821093F3
:10143000780200937702DF91CF911F910F91089569
:10144000A0E0B0E0E6E2FAE00C949208EC0100972C
:1014500021F4CB010E94F308B8C0FC01E60FF71F8E
:101460009C0122503109E217F30708F4ACC0D901FE
:101470000D911C91119706171707B0F00530110553
:1014800008F49FC0C80104978617970708F499C00D
:1014900002501109061B170B019311936D937C9356
:1014A000CF010E9488098DC05B01A01AB10A4C01CE
:1014B000800E911EA0917902B0917A0240E050E036
:1014C000E12CF12C109709F44AC0A815B905D1F503
:1014D0006D907C901197630182E0C80ED11CCA14F4
:1014E000DB0480F1A3014A195B096A0182E0C80E9E
:1014F000D11C1296BC9012971396AC91B5E0CB1606
:10150000D10440F0B282A38351834083D9016D930B
:101510007C930AC00E5F1F4FC301800F911FF9011A
:1015200091838083EB2DFA2FE114F10431F0D70180
:101530001396FC93EE93129744C0F0937A02E093D3
:1015400079023FC08D919C9111974817590708F473
:10155000AC017D0112960D90BC91A02DB3CF80916E
:1015600077029091780288159905E1F4461757079C
:10157000C8F48091000190910101009741F48DB76A
:101580009EB74091040150910501841B950BE8170B
:10159000F907C8F4F0937802E0937702F9017183B8
:1015A00060830FC0CB010E94F3087C01009759F0C3
:1015B000A801BE010E94EF0ACE010E948809C7015E
:1015C00004C0CE0102C080E090E0CDB7DEB7EEE00F
:1015D0000C94AE0881E090E0F8940C94FF0AFB01B3
:1015E000DC0102C001900D9241505040D8F708959F
:1015F000FB01DC0101900D920020E1F7089510E05D
:10160000CAE6D0E004C0FE010E94D9082196CB367C
:08161000D107C9F7F894FFCFE0
:1016180000007B028000000000008101EE0019013B
:10162800C8014A0128013C0100000000FD02EE004B
:10163800A103ED0051036903E5020D0A003A000D0C
:04164800002C200052
:00000001FF
